:020000040800F2
:10000000000003205D130008F5120008F712000835
:10001000F9120008FB120008FD12000800000000A1
:10002000000000000000000000000000FF120008B7
:100030000113000800000000031300080513000866
:10004000AD130008AD130008AD130008AD13000890
:10005000AD130008AD130008AD130008AD13000880
:10006000AD130008AD130008AD130008AD13000870
:10007000AD130008AD130008AD130008AD13000860
:10008000AD130008AD130008AD130008AD13000850
:10009000AD130008AD130008AD130008AD13000840
:1000A000AD130008AD130008AD130008AD13000830
:1000B000AD130008AD130008AD130008AD13000820
:1000C000AD130008AD130008AD130008AD13000810
:1000D000AD130008AD130008AD130008AD13000800
:1000E000AD130008AD130008AD130008AD130008F0
:1000F000AD130008AD130008AD130008AD130008E0
:10010000AD130008AD130008AD130008AD130008CF
:10011000AD130008AD130008AD130008AD130008BF
:10012000AD130008AD130008AD130008AD130008AF
:10013000AD130008AD130008AD130008AD1300089F
:10014000AD130008AD130008AD130008AD1300088F
:10015000AD130008AD130008AD130008AD1300087F
:10016000AD130008AD130008AD130008AD1300086F
:10017000AD130008AD130008AD1300080000000027
:10018000AD130008AD130008AD130008AD1300084F
:10019000AD130008AD130008AD130008AD1300083F
:0C01A000AD130008AD130008AD130008FB
:1001B00010B5054C237833B9044B13B10448AFF3A1
:1001C00000800123237010BD70000020000000009B
:1001D000501C000808B5034B1BB103490348AFF39B
:1001E000008008BD0000000074000020501C0008C2
:1001F00053B94AB9002908BF00281CBF4FF0FF318E
:100200004FF0FF3000F072B9ADF1080C6DE904CE8B
:1002100000F006F8DDF804E0DDE9022304B07047E1
:100220002DE9F047089E04468846002B4BD18A42B0
:10023000154667D9B2FA82F24AB1C2F1200701FA33
:1002400002F320FA07F7954047EA030894404FEA83
:10025000154E230CB8FBFEF71FFA85FC0EFB178822
:1002600043EA084307FB0CF1994209D9EB1807F15F
:10027000FF3080F01B81994240F21881023F2B44ED
:100280005B1AA4B2B3FBFEF00EFB103344EA034446
:1002900000FB0CFCA44509D92C1900F1FF3380F0B8
:1002A0000781A44540F2048102382C4440EA07400B
:1002B000A4EB0C0400271EB1D4400023C6E9004380
:1002C0003946BDE8F0878B4209D9002E00F0EB805B
:1002D0000027C6E9000138463946BDE8F087B3FA81
:1002E00083F7002F47D18B4202D3824200F2FA807B
:1002F000841A61EB030301209846002EE0D0C6E982
:100300000048DDE702B9FFDEB2FA82F2002A40F0CF
:100310008F80491B4FEA154E1FFA85F80127B1FB64
:10032000FEFC230C0EFB1C1143EA014308FB0CF1FD
:10033000994207D9EB180CF1FF3002D2994200F232
:10034000CD808446591AA3B2B1FBFEF00EFB101407
:1003500043EA044408FB00F8A04507D92C1900F132
:10036000FF3302D2A04500F2B6801846A4EB080481
:1003700040EA0C409FE7C7F1200CBB4022FA0CFE7C
:100380004EEA030E01FA07F420FA0CF521FA0CF3F9
:100390004FEA1E482543B3FBF8F92C0C08FB193330
:1003A0001FFA8EFA44EA034309FB0AF49C4202FA5C
:1003B00007F200FA07F10BD91EEB030309F1FF3036
:1003C00080F087809C4240F28480A9F10209734446
:1003D0001B1BADB2B3FBF8F008FB103345EA034436
:1003E00000FB0AFAA24508D91EEB040400F1FF3312
:1003F0006BD2A24569D90238744440EA0940A0FB97
:100400000289A4EB0A044C45C2464B4654D351D052
:10041000002E69D0B1EB0A0564EB030404FA0CFC6E
:10042000FD40FC404CEA0505C6E90054002747E7BB
:10043000C2F1200320FA03F7954001FA02F021FAF5
:1004400003F34FEA154E3843010CB3FBFEF71FFAD6
:1004500085F80EFB173341EA034107FB08F38B4293
:1004600004FA02F407D9691807F1FF3C2FD28B4236
:100470002DD9023F2944CB1A81B2B3FBFEF00EFB0B
:10048000103341EA034100FB08F38B4207D9691896
:1004900000F1FF3C17D28B4215D902382944C91A02
:1004A00040EA07473BE73746304609E70746E7E6B5
:1004B0001846FBE64145ABD2B8EB020A69EB0E02E7
:1004C00001381346A4E76046E9E7184695E7674612
:1004D000D1E781467CE702382C4447E7ACF1020CB7
:1004E0002B442FE7384608E73746E9E6704700BF58
:1004F00001F0FF01102A2BDB10F0070F08D010F8D5
:10050000013B013A8B422DD010F0070F42B3F6D1D8
:10051000F0B441EA012141EA014122F007047FF0F1
:1005200000070023F0E80256083C85EA010586EA48
:10053000010685FA47F5A3FA87F586FA47F6A5FA84
:1005400087F68EB9EED1F0BC01F0FF0102F0070290
:1005500032B110F8013B013A83EA010313B1F8D13B
:100560000020704701387047002D06BF354603381C
:10057000073815F0010F07D1013015F4807F02BF55
:10058000013015F4C03F0130F0BC0138704700BFA6
:1005900010B504460E4B18784FF47A73B3FBF0F3A2
:1005A0000C4A1068B0FBF3F000F09CF868B90F2C0F
:1005B00001D901200AE0002221464FF0FF3000F06F
:1005C0005DF8034B5C60002000E0012010BD00BF1F
:1005D000000000200800002008B50B4B1A6842F408
:1005E00000721A601A6842F480621A601A6842F453
:1005F00080721A60032000F02FF80020FFF7C8FF78
:1006000000F02EFE002008BD003C0240034A1168A5
:10061000034B1B780B441360704700BF9800002009
:1006200000000020014B1868704700BF98000020B0
:1006300038B50446FFF7F6FF0546B4F1FF3F02D098
:10064000044B1B781C44FFF7EDFF401BA042FAD37C
:1006500038BD00BF00000020074AD36823F4E063E0
:100660001B041B0C000200F4E060184340F0BF6064
:1006700040F40030D060704700ED00E030B4174B1C
:10068000DB68C3F30223C3F10704042C28BF04244E
:100690001D1D062D18D9033B4FF0FF3505FA04F454
:1006A00021EA0401994005FA03F322EA03031943FE
:1006B00000280BDB0901C9B200F1604000F5614080
:1006C00080F8001330BC70470023E5E700F00F000E
:1006D0000901C9B2024B1954F4E700BF00ED00E074
:1006E00014ED00E00138B0F1807F0AD2064B58606B
:1006F000064AF02182F823100020986007221A6031
:1007000070470120704700BF10E000E000ED00E0FE
:10071000042805D0054A136823F0040313607047CA
:10072000024A136843F004031360704710E000E0CE
:10073000704708B5FFF7FCFF08BD000010B582B098
:1007400000230193194B1A6C42F080521A641B6CFF
:1007500003F080530193019B154B01221A60FFF7B0
:1007600061FF0446134B5B6813F4803F08D1FFF729
:1007700059FF001BB0F57A7FF4D9032002B010BDF9
:100780000D4B01221A60FFF74DFF0446094B5B68D1
:1007900013F4003F07D1FFF745FF001BB0F57A7F48
:1007A000F4D90320EAE70020E8E700BF0038024060
:1007B00040000E420070004044000E42002800F04D
:1007C000BB8170B582B00446036813F0010F3BD0C3
:1007D000A74B9B6803F00C03042B2CD0A44B9B6805
:1007E00003F00C03082B21D06368B3F5803F4FD092
:1007F000B3F5A02F52D09E4B1A6822F480321A60B3
:100800001A6822F480221A606368002B50D0FFF728
:1008100009FF0546964B1B6813F4003F14D1FFF700
:1008200001FF401B6428F5D903208AE1904B5B68E7
:1008300013F4800FD8D08E4B1B6813F4003F03D005
:100840006368002B00F07A81236813F0020F55D003
:10085000874B9B6813F00C0F3ED0854B9B6803F0D1
:100860000C03082B33D0E368002B68D0814B0122A6
:100870001A60FFF7D7FE05467D4B1B6813F0020F89
:1008800054D1FFF7CFFE401B0228F5D9032058E1D1
:10089000774A136843F480331360B5E7744B1A68E2
:1008A00042F480221A601A6842F480321A60ABE780
:1008B000FFF7B8FE05466E4B1B6813F4003FC3D02C
:1008C000FFF7B0FE401B6428F5D9032039E1684BDF
:1008D0005B6813F4800FC6D1654B1B6813F0020FE1
:1008E00004D0E368012B01D001202AE1604A13689B
:1008F00023F0F803216943EAC1031360236813F06E
:10090000080F40D0636963B35B4B01221A60FFF7A5
:1009100089FE0546564B5B6F13F0020F33D1FFF78C
:1009200081FE401B0228F5D903200AE1504A1368D2
:1009300023F0F803216943EAC1031360DEE74D4B5E
:1009400000221A60FFF76EFE0546494B1B6813F044
:10095000020FD3D0FFF766FE401B0228F5D9032013
:10096000EFE0454B00221A60FFF75CFE0546404B66
:100970005B6F13F0020F06D0FFF754FE401B0228F6
:10098000F5D90320DDE0236813F0040F79D0384B4C
:100990001B6C13F0805F33D100230193344B1A6C2E
:1009A00042F080521A641B6C03F080530193019B48
:1009B0000125324B1B6813F4807F23D0A368012BE1
:1009C00034D0052B38D02A4B1A6F22F001021A6757
:1009D0001A6F22F004021A67A368002B36D0FFF7C3
:1009E00021FE0646224B1B6F13F0020F48D1FFF782
:1009F00019FE801B41F288339842F3D90320A0E00E
:100A00000025D6E71D4A136843F480731360FFF78F
:100A100009FE0646194B1B6813F4807FCED1FFF701
:100A200001FE801B0228F5D903208AE0104A136FCB
:100A300043F001031367CFE70D4B1A6F42F0040236
:100A40001A671A6F42F001021A67C5E7FFF7EAFD5D
:100A50000646074B1B6F13F0020F11D0FFF7E2FDA4
:100A6000801B41F288339842F3D9032069E000BF2C
:100A70000038024000004742800E474200700040AC
:100A8000E5B9A369002B5BD0304A926802F00C02F2
:100A9000082A58D0022B17D02D4B00221A60FFF7DE
:100AA000C1FD0446294B1B6813F0007F42D0FFF7BD
:100AB000B9FD001B0228F5D9032042E0234A136C3C
:100AC00023F080531364DCE7214B00221A60FFF708
:100AD000A9FD05461D4B1B6813F0007F06D0FFF7EC
:100AE000A1FD401B0228F5D903202AE0E369226A10
:100AF0001343626A43EA8213A26A5208013A43EA44
:100B00000243E26A43EA0263104A5360104B012237
:100B10001A60FFF787FD04460C4B1B6813F0007F3B
:100B200006D1FFF77FFD001B0228F5D9032008E05E
:100B3000002006E0002004E001207047012000E0D2
:100B4000002002B070BD0120FBE700BF003802406A
:100B500060004742264B9B6803F00C03042B44D0F3
:100B6000082B01D0234870472DE9F04B204B5A68E1
:100B700002F03F025B6813F4800F13D01C4B5968DE
:100B8000C1F3881100231C48A1FB0001FFF730FBD3
:100B9000174B5B68C3F3014301335B00B0FBF3F019
:100BA000BDE8F08B124B5B68C3F388131E46002729
:100BB0005C010025E41A65EB0705A90141EA94618F
:100BC000A001001B61EB0501CB0043EA5073C40098
:100BD000A01943EB07018B0243EA9053840220469D
:100BE00019460023FFF704FBD2E70348704700BF14
:100BF000003802400024F40040787D01002800F015
:100C00009D8070B504464F4B1B6803F00F038B4269
:100C100009D2CBB24B4A1370136803F00F038B4217
:100C200001D0012070BD236813F0020F17D013F01C
:100C3000040F04D0444A936843F4E053936023685C
:100C400013F0080F04D0404A936843F46043936064
:100C50003D4A936823F0F003A068034393600D4678
:100C6000236813F0010F32D06368012B21D09A1E44
:100C7000012A25D9344A126812F0020F60D0324995
:100C80008A6822F0030213438B60FFF7CBFC064611
:100C90002D4B9B6803F00C036268B3EB820F16D0F8
:100CA000FFF7C0FC801B41F288339842F0D9032043
:100CB000B8E7254A126812F4003FE0D10120B1E7FD
:100CC000214A126812F0007FD9D10120AAE71D4BFA
:100CD0001B6803F00F03AB4209D9EAB2194B1A7033
:100CE0001B6803F00F03AB4201D001209AE7236891
:100CF00013F0040F06D0144A936823F4E053E1681C
:100D00000B439360236813F0080F07D00E4A9368D3
:100D100023F46043216943EAC1039360FFF71AFF9C
:100D2000094B9B68C3F30313084AD35CD840084BB4
:100D300018600020FFF72CFC002073E701207047AB
:100D400001206FE7003C024000380240681C0008A8
:100D500008000020014B1868704700BF0800002001
:100D60002DE9F04302F00308C2F3800EC2F3C10C78
:100D7000C2F341120126002401E0760001340F2C59
:100D80002ED83142F9D0076865000323AB40DB431E
:100D90001F400760076808FA05F947EA0907076076
:100DA00047684FF0010909FA04F927EA0907476083
:100DB00047680EFA04F947EA0907476087681F4049
:100DC000876087680CFA05F947EA09078760C768F2
:100DD0003B40C360C76802FA05F33B43C360CCE7FE
:100DE000BDE8F083012A03D00AB909048161704784
:100DF0008161704780283AD00FD9B0F5006F3CD0A0
:100E00001DD9B0F5005F3AD024D9B0F5804F38D065
:100E1000B0F5004F0AD10F207047082821D006D81E
:100E2000022832D004281AD001282CD0704720285C
:100E300019D0402819D01028F8D104207047B0F5F7
:100E4000007F16D0B0F5806F15D0B0F5807FEDD162
:100E500008207047B0F5805FE8D10C207047022071
:100E60007047032070470520704706207047072011
:100E70007047092070470A2070470B2070470D20EB
:100E800070470E207047002070470120704770B5F2
:100E90000646144600F120050846FFF7ABFF072879
:100EA00002DD06F1240508382B68800004FA00F002
:100EB0001843286070BD00001B4B984206D01B4BA6
:100EC000984212D01A4B98421ED0704703F58433D3
:100ED0005A6C42F480525A645A6A42F480525A62FE
:100EE0005A6A22F480525A62704703F500331A6C32
:100EF00042F480421A641A6A42F480421A621A6A00
:100F000022F480421A62704703F5FE331A6C42F4F1
:100F100000421A641A6A42F400421A621A6A22F4FF
:100F200000421A62D1E700BF0030014000380040A3
:100F3000003C00408BB20360090C41607047C16007
:100F40007047C06880B27047C36813F4004F01D186
:100F5000012070470020704710B5044691B2C1606F
:100F6000120C02614361FFF7EFFF30B30023DFEDA6
:100F7000157A9DED037AB8EEC76AC3F10202029BAF
:100F800003FB02F3DB0007EE103AB8EEC77AC6EEB9
:100F9000076ABDEEE67AB8EEC76A76EEC66AF8EE84
:100FA000E77A67EEA67AFDEEE77A17EE903A17EE4B
:100FB000102A43EA0213A36010BD0123DFED027A79
:100FC000D7E700BF100000000800000082B0002337
:100FD0000193064B1A6B42F080021A631B6B03F0FD
:100FE00080030193019B02B0704700BF00380240AC
:100FF0000FB430B583B006AB53F8045B01932A46B7
:101000000021114800F024FA0446B0F5007F01DB0E
:1010100040F2FF14019B2A46611C0B4800F018FAAD
:10102000002209E0094B1B6813F0800FFAD0064B31
:10103000995C064B596001329442F3DC03B0BDE881
:10104000304004B0704700BF9C00002000500040BA
:10105000FEE7000000B595B0002101912E4B1A6CFF
:1010600042F080521A641B6C03F080530193019B81
:1010700002912A4A136823F4404343F480431360E7
:10108000136803F440430293029B012308934FF437
:101090008033099302230E934FF480020F920F22A4
:1010A00010926C22119212930423139308A8FFF755
:1010B00085FB20BBFFF742FB28BB0F2303930221D4
:1010C0000491002305934FF480530693079303A8DC
:1010D000FFF794FDD8B9FFF73DFE114BA3FB00309D
:1010E0008009FFF7FFFA0420FFF712FB00221146E8
:1010F0004FF0FF30FFF7C2FA15B05DF804FBEB21AB
:101100000848FFF7A5FFF2210648FFF7A1FF4FF4BB
:1011100080710448FFF79CFF0038024000700040D7
:10112000D34D6210801C000830B5C3B0FFF754FAED
:10113000FFF790FFFFF74AFF424D2846FFF7BCFE3E
:10114000414B1A6B42F001021A631A6A42F4801290
:101150001A621A6A22F480121A621A6C42F480121D
:101160001A641A6B42F001021A631A6B42F004020D
:101170001A63364C1A224FF480512046FFF7F0FDD7
:1011800008224FF480512046FFF781FE304B019337
:101190004FF4E133009343F2086200232D48FFF738
:1011A000DBFEA4F50064192210212046FFF7D8FDCC
:1011B0001A2240212046FFF7D3FD05224021204678
:1011C000FFF765FE1A2220212046FFF7C9FD052200
:1011D00020212046FFF75BFE4CF67C312846FFF7C6
:1011E000A9FE15E0BDF808101648FFF7A8FE19E0A3
:1011F0001948FFF7FDFE134B9B6813F0800FFAD1DF
:10120000012210211548FFF7EDFD0A20FFF710FA23
:10121000002210211148FFF7E5FD0A4B9B6813F0EF
:10122000020FDFD1074B9B68064B9B6813F0800FC2
:10123000FAD1044B9B6813F0010FD9D00148FFF796
:1012400080FED5E70030014000380240000802402F
:1012500040A5AE0200500040901C00080000024073
:1012600010B582B000240094214B5A6C42F48042A5
:101270005A645A6C02F480420092009A01941A6CEB
:1012800042F080521A641B6C03F080530193019B5F
:101290000320FFF7E1F9224621466FF00B00FFF72C
:1012A000EDF9224621466FF00A00FFF7E7F92246E2
:1012B00021466FF00900FFF7E1F9224621466FF061
:1012C0000400FFF7DBF9224621466FF00300FFF729
:1012D000D5F9224621466FF00100FFF7CFF92246EB
:1012E00021464FF0FF30FFF7C9F902B010BD00BF33
:1012F000003802407047FEE7FEE7FEE7FEE7704772
:101300007047704708B5FFF781F9FFF712FA08BD7B
:101310000F49D1F8883043F47003C1F888300D4B81
:101320001A6842F001021A60002098601A6822F0E0
:10133000847222F480321A60074A5A601A6822F4D2
:1013400080221A60D8604FF000638B60704700BF46
:1013500000ED00E00038024010300024DFF834D007
:10136000002103E00C4B5B58435004310B480C4BFD
:1013700042189A42F6D30B4A02E0002342F8043B9B
:10138000094B9A42F9D3FFF7C3FF00F011F8FFF7BA
:10139000CBFE704700000320E81C0008000000207E
:1013A0007000002070000020A0020020FEE7000076
:1013B00070B50D4E0D4CA41BA4100025A54209D1FB
:1013C0000B4E0C4C00F044FCA41BA4100025A542BD
:1013D00005D170BD56F8253098470135EEE756F82F
:1013E000253098470135F2E7E01C0008E01C0008B2
:1013F000E01C0008E41C000830B5141E05469BB034
:10140000184605DA8B232B604FF0FF301BB030BD40
:101410004FF40273ADF80C3014BF04F1FF332346D0
:10142000029305934FF6FF7300910491ADF80E30CF
:1014300002461E9B6946284600F072F8431CBCBF5A
:101440008B232B60002CE1D0009B00221A70DDE77B
:1014500007B5009313460A46014603480068FFF7A4
:10146000CBFF03B05DF804FB0C0000202DE9F04732
:101470008E689E4282460C469046994637D88A89A5
:1014800012F4906F31D0256809696F1A65690223DB
:1014900005EB450595FBF3F509F101033B449D423E
:1014A00038BF1D46530530D5294600F029FB0646B6
:1014B00050B90C23CAF80030A38943F04003A3813C
:1014C0004FF0FF30BDE8F0873A46216900F0A6FAF8
:1014D000A38923F4906343F08003A38126616561AF
:1014E0003E44ED1B2660A5604E464E4500D94E4653
:1014F00032464146206800F09CFAA3689B1BA3601B
:1015000023681E4426600020DCE72A4600F052FBD8
:1015100006460028E2D12169504600F0A3FAC8E748
:101520002DE9F04F9DB0804603938B891D060C4634
:1015300016460FD50B696BB9402100F0E1FA206027
:10154000206128B90C23C8F800304FF0FF30C7E005
:10155000402363610023099320238DF82930302331
:101560008DF82A304FF0010B37463D4615F8013B08
:101570000BB1252B3ED1B7EB060A0BD053463246B2
:1015800021464046FFF772FF013000F0A480099B1E
:10159000534409933B78002B00F09D8000234FF0CB
:1015A000FF32CDE90523049307938DF853301A9346
:1015B0002F46052217F8011B4F48FEF799FF049BA1
:1015C000D0B9D90644BF20228DF853201A0744BF52
:1015D0002B228DF853202A782A2A15D0079A2F46D5
:1015E00000200A25394611F8013B303B092B4DD923
:1015F000B8B10FE02F46B8E73F4A801A0BFA00F067
:10160000184304903D46D3E7039A111D12680391D5
:10161000002A01DB079204E0524243F002030792E2
:1016200004933B782E2B0CD17B782A2B33D1039B50
:101630001A1D1B680392002BB8BF4FF0FF3302370F
:1016400005932E4D397803222846FEF751FF38B115
:101650004023401B03FA00F0049B0343013704932B
:10166000397827488DF8281006227E1CFEF740FFA7
:10167000002838D0234B13BB039B073323F0070309
:1016800008330393099B4B4409936DE705FB023232
:1016900001200F46A6E700230137059319460A25C6
:1016A000384610F8012B303A092A03D9002BC8D04C
:1016B0000591C6E705FB012101230746F0E703ABCF
:1016C00000932246104B04A94046AFF30080B0F1CE
:1016D000FF3F8146D6D1A3895B063FF536AF099817
:1016E0001DB0BDE8F08F03AB00932246064B04A962
:1016F000404600F081F8EAE7A41C0008AA1C000894
:10170000AE1C0008000000006D1400082DE9F04731
:1017100091461F468A680B69DDF820809342B8BF66
:101720001346C9F8003091F8432006460C4612B122
:101730000133C9F800302368990642BFD9F8003058
:101740000233C9F80030256815F0060507D104F109
:10175000190AE368D9F800209B1AAB4228DC94F8F8
:1017600043302268003318BF012392062DD404F1C0
:10177000430239463046C047013020D02368E5682F
:10178000D9F8002003F00603042B08BFAD1AA368A4
:1017900022690CBF25EAE57500259342C4BF9B1A58
:1017A000ED184FF000091A344D451AD1002008E019
:1017B0000123524639463046C047013003D14FF02D
:1017C000FF30BDE8F0870135C3E7E1185A1C30202F
:1017D00081F84300224494F8451082F84310023304
:1017E000C5E70123224639463046C0470130E6D0DE
:1017F00009F10109D8E700002DE9F04301F1430C9C
:101800000C46097E85B06E291746064698460C9A06
:1018100000F0B38022D8632936D00AD8002900F01E
:10182000B980582900F0838004F1420584F8421001
:1018300032E0642901D06929F6D1206813680506D1
:1018400003F104012AD51B681160002B03DA2D2255
:101850005B4284F843206F480A2239E0732900F084
:101860009D8008D86F2920D07029DDD1236843F0EE
:101870002003236003E0752917D07829D4D1782379
:1018800084F84530644855E01368191D1B681160E1
:1018900004F1420584F8423001238CE01B6811609A
:1018A00010F0400F18BF1BB2CFE713682568181D52
:1018B0001060280601D51B6802E06806FBD51B886E
:1018C00054486F2914BF0A220822002184F84310CB
:1018D0006568A560002DC0F29580216821F00401A3
:1018E0002160002B3DD1002D40F08E806546082AF6
:1018F0000BD12368DB0708D5236962689A42DEBFF3
:10190000302305F8013C05F1FF35ACEB05032361FD
:10191000CDF800803B4603AA21463046FFF7F6FE8D
:1019200001304DD14FF0FF3005B0BDE8F0833948AC
:1019300084F84510136821681D1D1B6815600A0690
:101940000BD5CA0744BF41F0200121601BB92268B2
:1019500022F0200222601022B7E74D0648BF9BB25A
:10196000EFE76546B3FBF2F102FB1133C35C05F808
:10197000013D0B460029F5D1B9E713682568616977
:10198000181D106028061B6801D5196002E06A0660
:10199000FBD51980002323616546B9E71368191D3B
:1019A00011601D68626800212846FEF7A1FD08B19C
:1019B000401B606063682361002384F84330A7E71D
:1019C00023692A4639463046C0470130AAD02368E9
:1019D0009B0713D4E068039B9842B8BF1846A3E75F
:1019E00001234A4639463046C04701309AD0013576
:1019F000E368039A9B1AAB42F2DCEBE7002504F1A3
:101A00001909F5E7002BACD1037884F8423004F1D2
:101A100042056CE7B51C0008C61C000810B5431E43
:101A20000A44914200D110BD11F8014B03F8014F57
:101A3000F7E7884210B501EB020307D8421E99422E
:101A40000AD011F8014B02F8014FF8E78342F5D9AB
:101A50008118D21AD34200D110BD13F8014D01F8FC
:101A6000014DF7E738B50546002945D051F8043C4B
:101A70000C1F002BB8BFE41800F0D2F81F4A1368FF
:101A8000104633B9636014602846BDE8384000F062
:101A9000C8B8A3420CD921686218934204BF1A68DF
:101AA0005B68636004BF521822600460ECE7134671
:101AB0005A680AB1A242FAD919685818A0420BD143
:101AC00020680144581882421960DDD110685268BC
:101AD0005A6001441960D7E702D90C232B60D3E781
:101AE000206821188A4204BF11685268626004BFEE
:101AF000091821605C60C7E738BD00BF8C0000207A
:101B000070B5CD1C25F0030508350C2D38BF0C250C
:101B1000002D064601DBA94203D90C2333600020C7
:101B200070BD00F07DF8214A1468214691B9204C1F
:101B300023681BB9304600F063F820602946304620
:101B400000F05EF8431C24D10C233360304600F0D3
:101B500068F8E4E70B685B1B18D40B2B0FD90B60FC
:101B6000CD50CC18304600F05CF804F10B00231D7A
:101B700020F00700C31AD3D05A42E250D0E78C427B
:101B80004B6816BF636013600C46EBE70C46496870
:101B9000CCE7C41C24F00304A04205D0211A30462F
:101BA00000F02EF80130CFD02560DBE78C0000205C
:101BB00090000020F8B5074614460E4621B911469C
:101BC000BDE8F840FFF79CBF22B9FFF74BFF254661
:101BD0002846F8BD00F026F8A0420FD2214638462C
:101BE000FFF78EFF05460028F2D031462246FFF768
:101BF00015FF31463846FFF735FFE9E73546E7E799
:101C000038B5064C002305460846236000F012F85C
:101C1000431C02D1236803B12B6038BD9C02002015
:101C20007047704751F8043C181F002BBCBF0B587D
:101C3000C0187047044A05491368002B08BF0B46BB
:101C4000184410601846704794000020A00200203D
:101C5000F8B500BFF8BC08BC9E467047F8B500BF99
:081C6000F8BC08BC9E46704769
:101C68000000000000000000010203040607080944
:101C780000000000010203042E2E2F5372632F6D03
:101C880061696E2E6300000054656D706572617441
:101C9800757265203A2043200A000000232D302B5E
:101CA8002000686C4C006566674546470030313255
:101CB80033343536373839414243444546003031AC
:101CC800323334353637383961626364656600000B
:081CD80048E5FF7F0100000058
:041CE000D501000822
:041CE400B101000842
:101CE80001000000100000000024F4001000002093
:101CF80000000000000000000000000000000000DC
:101D080000000000000000000000000000000000CB
:101D180000000000000000000000000000000000BB
:101D280000000000000000000000000000000000AB
:101D3800000000000000000000000000000000009B
:101D4800000000000000000000000000000000008B
:040000050800135D7F
:00000001FF
